{
  "_format": "hh-sol-artifact-1",
  "contractName": "WavePortal",
  "sourceName": "contracts/WavePortal.sol",
  "abi": [
    {
      "inputs": [],
      "stateMutability": "payable",
      "type": "constructor"
    },
    {
      "anonymous": false,
      "inputs": [
        {
          "indexed": true,
          "internalType": "address",
          "name": "from",
          "type": "address"
        },
        {
          "indexed": false,
          "internalType": "uint256",
          "name": "timestamp",
          "type": "uint256"
        },
        {
          "indexed": false,
          "internalType": "string",
          "name": "message",
          "type": "string"
        }
      ],
      "name": "NewWave",
      "type": "event"
    },
    {
      "inputs": [],
      "name": "getAllWaves",
      "outputs": [
        {
          "components": [
            {
              "internalType": "address",
              "name": "waver",
              "type": "address"
            },
            {
              "internalType": "string",
              "name": "message",
              "type": "string"
            },
            {
              "internalType": "uint256",
              "name": "timestamp",
              "type": "uint256"
            }
          ],
          "internalType": "struct WavePortal.Wave[]",
          "name": "",
          "type": "tuple[]"
        }
      ],
      "stateMutability": "view",
      "type": "function"
    },
    {
      "inputs": [],
      "name": "getLatestPrice",
      "outputs": [
        {
          "internalType": "int256",
          "name": "",
          "type": "int256"
        }
      ],
      "stateMutability": "view",
      "type": "function"
    },
    {
      "inputs": [],
      "name": "getTotalWaves",
      "outputs": [
        {
          "internalType": "uint256",
          "name": "",
          "type": "uint256"
        }
      ],
      "stateMutability": "view",
      "type": "function"
    },
    {
      "inputs": [
        {
          "internalType": "address",
          "name": "",
          "type": "address"
        }
      ],
      "name": "lastWavedAt",
      "outputs": [
        {
          "internalType": "uint256",
          "name": "",
          "type": "uint256"
        }
      ],
      "stateMutability": "view",
      "type": "function"
    },
    {
      "inputs": [
        {
          "internalType": "string",
          "name": "_message",
          "type": "string"
        }
      ],
      "name": "wave",
      "outputs": [],
      "stateMutability": "nonpayable",
      "type": "function"
    }
  ],
  "bytecode": "0x60806040526200004f6040518060400160405280601981526020017f57652068617665206265656e20636f6e73747275637465642100000000000000815250620000cc60201b620006ec1760201c565b606444426200005f919062000219565b6200006b9190620002b6565b600181905550738a753747a1fa494ec906ce90e9f37563a8af630e600360006101000a81548173ffffffffffffffffffffffffffffffffffffffff021916908373ffffffffffffffffffffffffffffffffffffffff1602179055506200035d565b6200016c81604051602401620000e39190620001d9565b6040516020818303038152906040527f41304fac000000000000000000000000000000000000000000000000000000007bffffffffffffffffffffffffffffffffffffffffffffffffffffffff19166020820180517bffffffffffffffffffffffffffffffffffffffffffffffffffffffff83818316178352505050506200016f60201b60201c565b50565b60008151905060006a636f6e736f6c652e6c6f679050602083016000808483855afa5050505050565b6000620001a582620001fd565b620001b1818562000208565b9350620001c381856020860162000280565b620001ce816200034c565b840191505092915050565b60006020820190508181036000830152620001f5818462000198565b905092915050565b600081519050919050565b600082825260208201905092915050565b6000620002268262000276565b9150620002338362000276565b9250827fffffffffffffffffffffffffffffffffffffffffffffffffffffffffffffffff038211156200026b576200026a620002ee565b5b828201905092915050565b6000819050919050565b60005b83811015620002a057808201518184015260208101905062000283565b83811115620002b0576000848401525b50505050565b6000620002c38262000276565b9150620002d08362000276565b925082620002e357620002e26200031d565b5b828206905092915050565b7f4e487b7100000000000000000000000000000000000000000000000000000000600052601160045260246000fd5b7f4e487b7100000000000000000000000000000000000000000000000000000000600052601260045260246000fd5b6000601f19601f8301169050919050565b611273806200036d6000396000f3fe608060405234801561001057600080fd5b50600436106100575760003560e01c8063449d46c01461005c5780638e15f473146100785780639a2cdc0814610096578063a42a4663146100b4578063bd43a908146100e4575b600080fd5b610076600480360381019061007191906109d2565b610102565b005b6100806104bc565b60405161008d9190610ce3565b60405180910390f35b61009e61057a565b6040516100ab9190610db0565b60405180910390f35b6100ce60048036038101906100c991906109a9565b610583565b6040516100db9190610db0565b60405180910390f35b6100ec61059b565b6040516100f99190610cc1565b60405180910390f35b42610384600460003373ffffffffffffffffffffffffffffffffffffffff1673ffffffffffffffffffffffffffffffffffffffff168152602001908152602001600020546101509190610ec2565b10610190576040517f08c379a000000000000000000000000000000000000000000000000000000000815260040161018790610d90565b60405180910390fd5b42600460003373ffffffffffffffffffffffffffffffffffffffff1673ffffffffffffffffffffffffffffffffffffffff1681526020019081526020016000208190555060016000808282546101e69190610ec2565b9250508190555061022c6040518060400160405280600d81526020017f257320686173207761766564210000000000000000000000000000000000000081525033610785565b600260405180606001604052803373ffffffffffffffffffffffffffffffffffffffff16815260200183815260200142815250908060018154018082558091505060019003906000526020600020906003020160009091909190915060008201518160000160006101000a81548173ffffffffffffffffffffffffffffffffffffffff021916908373ffffffffffffffffffffffffffffffffffffffff16021790555060208201518160010190805190602001906102eb92919061084a565b50604082015181600201555050606460015442446103099190610ec2565b6103139190610ec2565b61031d9190611019565b6001819055506032600154116104695761036c6040518060400160405280600781526020017f257320776f6e210000000000000000000000000000000000000000000000000081525033610785565b6000655af3107a40009050478111156103ba576040517f08c379a00000000000000000000000000000000000000000000000000000000081526004016103b190610d70565b60405180910390fd5b60003373ffffffffffffffffffffffffffffffffffffffff16826040516103e090610cac565b60006040518083038185875af1925050503d806000811461041d576040519150601f19603f3d011682016040523d82523d6000602084013e610422565b606091505b5050905080610466576040517f08c379a000000000000000000000000000000000000000000000000000000000815260040161045d90610d50565b60405180910390fd5b50505b3373ffffffffffffffffffffffffffffffffffffffff167f5f7e16dc676677766a70e9c5628aa6c54ddb8b6e5188e2ae1e1f17f1ffbea71642836040516104b1929190610dcb565b60405180910390a250565b600080600080600080600360009054906101000a900473ffffffffffffffffffffffffffffffffffffffff1673ffffffffffffffffffffffffffffffffffffffff1663feaf968c6040518163ffffffff1660e01b815260040160a06040518083038186803b15801561052d57600080fd5b505afa158015610541573d6000803e3d6000fd5b505050506040513d601f19601f820116820180604052508101906105659190610a13565b94509450945094509450839550505050505090565b60008054905090565b60046020528060005260406000206000915090505481565b60606002805480602002602001604051908101604052809291908181526020016000905b828210156106e357838290600052602060002090600302016040518060600160405290816000820160009054906101000a900473ffffffffffffffffffffffffffffffffffffffff1673ffffffffffffffffffffffffffffffffffffffff1673ffffffffffffffffffffffffffffffffffffffff16815260200160018201805461064890610fb6565b80601f016020809104026020016040519081016040528092919081815260200182805461067490610fb6565b80156106c15780601f10610696576101008083540402835291602001916106c1565b820191906000526020600020905b8154815290600101906020018083116106a457829003601f168201915b50505050508152602001600282015481525050815260200190600101906105bf565b50505050905090565b610782816040516024016107009190610cfe565b6040516020818303038152906040527f41304fac000000000000000000000000000000000000000000000000000000007bffffffffffffffffffffffffffffffffffffffffffffffffffffffff19166020820180517bffffffffffffffffffffffffffffffffffffffffffffffffffffffff8381831617835250505050610821565b50565b61081d828260405160240161079b929190610d20565b6040516020818303038152906040527f319af333000000000000000000000000000000000000000000000000000000007bffffffffffffffffffffffffffffffffffffffffffffffffffffffff19166020820180517bffffffffffffffffffffffffffffffffffffffffffffffffffffffff8381831617835250505050610821565b5050565b60008151905060006a636f6e736f6c652e6c6f679050602083016000808483855afa5050505050565b82805461085690610fb6565b90600052602060002090601f01602090048101928261087857600085556108bf565b82601f1061089157805160ff19168380011785556108bf565b828001600101855582156108bf579182015b828111156108be5782518255916020019190600101906108a3565b5b5090506108cc91906108d0565b5090565b5b808211156108e95760008160009055506001016108d1565b5090565b60006109006108fb84610e20565b610dfb565b90508281526020810184848401111561091857600080fd5b610923848285610f74565b509392505050565b60008135905061093a816111e1565b92915050565b60008151905061094f816111f8565b92915050565b600082601f83011261096657600080fd5b81356109768482602086016108ed565b91505092915050565b60008151905061098e8161120f565b92915050565b6000815190506109a381611226565b92915050565b6000602082840312156109bb57600080fd5b60006109c98482850161092b565b91505092915050565b6000602082840312156109e457600080fd5b600082013567ffffffffffffffff8111156109fe57600080fd5b610a0a84828501610955565b91505092915050565b600080600080600060a08688031215610a2b57600080fd5b6000610a3988828901610994565b9550506020610a4a88828901610940565b9450506040610a5b8882890161097f565b9350506060610a6c8882890161097f565b9250506080610a7d88828901610994565b9150509295509295909350565b6000610a968383610c3e565b905092915050565b610aa781610f18565b82525050565b610ab681610f18565b82525050565b6000610ac782610e61565b610ad18185610e84565b935083602082028501610ae385610e51565b8060005b85811015610b1f5784840389528151610b008582610a8a565b9450610b0b83610e77565b925060208a01995050600181019050610ae7565b50829750879550505050505092915050565b610b3a81610f2a565b82525050565b6000610b4b82610e6c565b610b558185610ea0565b9350610b65818560208601610f83565b610b6e81611106565b840191505092915050565b6000610b8482610e6c565b610b8e8185610eb1565b9350610b9e818560208601610f83565b610ba781611106565b840191505092915050565b6000610bbf602783610eb1565b9150610bca82611117565b604082019050919050565b6000610be2603583610eb1565b9150610bed82611166565b604082019050919050565b6000610c05600083610e95565b9150610c10826111b5565b600082019050919050565b6000610c28600883610eb1565b9150610c33826111b8565b602082019050919050565b6000606083016000830151610c566000860182610a9e565b5060208301518482036020860152610c6e8282610b40565b9150506040830151610c836040860182610c8e565b508091505092915050565b610c9781610f54565b82525050565b610ca681610f54565b82525050565b6000610cb782610bf8565b9150819050919050565b60006020820190508181036000830152610cdb8184610abc565b905092915050565b6000602082019050610cf86000830184610b31565b92915050565b60006020820190508181036000830152610d188184610b79565b905092915050565b60006040820190508181036000830152610d3a8185610b79565b9050610d496020830184610aad565b9392505050565b60006020820190508181036000830152610d6981610bb2565b9050919050565b60006020820190508181036000830152610d8981610bd5565b9050919050565b60006020820190508181036000830152610da981610c1b565b9050919050565b6000602082019050610dc56000830184610c9d565b92915050565b6000604082019050610de06000830185610c9d565b8181036020830152610df28184610b79565b90509392505050565b6000610e05610e16565b9050610e118282610fe8565b919050565b6000604051905090565b600067ffffffffffffffff821115610e3b57610e3a6110d7565b5b610e4482611106565b9050602081019050919050565b6000819050602082019050919050565b600081519050919050565b600081519050919050565b6000602082019050919050565b600082825260208201905092915050565b600081905092915050565b600082825260208201905092915050565b600082825260208201905092915050565b6000610ecd82610f54565b9150610ed883610f54565b9250827fffffffffffffffffffffffffffffffffffffffffffffffffffffffffffffffff03821115610f0d57610f0c61104a565b5b828201905092915050565b6000610f2382610f34565b9050919050565b6000819050919050565b600073ffffffffffffffffffffffffffffffffffffffff82169050919050565b6000819050919050565b600069ffffffffffffffffffff82169050919050565b82818337600083830152505050565b60005b83811015610fa1578082015181840152602081019050610f86565b83811115610fb0576000848401525b50505050565b60006002820490506001821680610fce57607f821691505b60208210811415610fe257610fe16110a8565b5b50919050565b610ff182611106565b810181811067ffffffffffffffff821117156110105761100f6110d7565b5b80604052505050565b600061102482610f54565b915061102f83610f54565b92508261103f5761103e611079565b5b828206905092915050565b7f4e487b7100000000000000000000000000000000000000000000000000000000600052601160045260246000fd5b7f4e487b7100000000000000000000000000000000000000000000000000000000600052601260045260246000fd5b7f4e487b7100000000000000000000000000000000000000000000000000000000600052602260045260246000fd5b7f4e487b7100000000000000000000000000000000000000000000000000000000600052604160045260246000fd5b6000601f19601f8301169050919050565b7f4661696c656420746f207769746864726177206d6f6e65792066726f6d20636f60008201527f6e74726163742e00000000000000000000000000000000000000000000000000602082015250565b7f547279696e6720746f207769746864726177206d6f7265206d6f6e657920746860008201527f616e207468657920636f6e7472616374206861732e0000000000000000000000602082015250565b50565b7f576169742031356d000000000000000000000000000000000000000000000000600082015250565b6111ea81610f18565b81146111f557600080fd5b50565b61120181610f2a565b811461120c57600080fd5b50565b61121881610f54565b811461122357600080fd5b50565b61122f81610f5e565b811461123a57600080fd5b5056fea2646970667358221220afec4d7c80788ba61460bf7a84dc46630333d7fbaed5a17583796d8c7f5075e464736f6c63430008040033",
  "linkReferences": {},
  "deployedLinkReferences": {}
}